S00E00006C6F616465722E737265639F
S1130000130101FE232E1100232C8100232A9100C9
S11300102328210123263101232441011300000058
S1130020130800001306000093070000B70300083C
S1130030930830009300000613041000930450004A
S1130040371772761307D7A0830640B093F62600BD
S1130050E39C06FE2300E0B013578740E31607FE37
S113006037373E2013073723830640B093F6260024
S1130070E39C06FE2300E0B013578740E31607FE17
S1130080930E2000930F30059302F0FF1309D00064
S11300909309F0019305F00F9306F0FF1305200078
S11300A0130F0004135A864063D40606F32710C0C6
S11300B033F77700630407001307F00F13D33741B6
S11300C013FEF70F1373F30F6350C3051347F700C1
S11300D02308E0F0030740B013771700E30607FC9A
S11300E0030700B063DA0604630AF70163165702D4
S11300F06F00000F930700006FF0DFFA9307000012
S1130100930600006FF01FFA1347070F6FF05FFCB0
S1130110230840F16FF01FFCE30427F3930700006A
S1130120E3D2E9F8830740B093F72700E39C07FE86
S11301302300E0B06FF01FF7130367FFE3FC68F4DC
S11301409397470063DEE002130707FE130797FC4B
S113015093861600B367F70063928604138797FFAC
S113016063E6EE0237040080B704001033718800A0
S11301703361910093000000670008006FF09FF75F
S1130180E346EFFC130707FD6FF09FFCE3C4F8F6AA
S113019093971700938557006FF0DFF56398160166
S11301A0939717003305F5006FF0DFF4E3DCB4EE4A
S11301B0639AD50013860700E31608EE1388070038
S11301C06FF05FEEE3D0D5EE13F71600E30C07EC07
S11301D0E3DAA6EC2300F600130616006FF09FEC9A
S11301E0130500009306000093070000130810098C
S11301F09308000A1303100B130E1008930E000942
S1130200130F0008732710C0135787012308E0F069
S1130210030740B013771700E30607FE030700B097
S11302201377F70F630007036366E802630AC707DF
S1130230630ED701130640006300E7056700000062
S11302406FF05FFC938706006FF0DFFB13850600F9
S11302506FF05FFB6308170BE31267FE37040008B7
S1130260B704000133F1860033619100930000006C
S1130270678006006FF09FFC93968600030740B0EA
S113028013771700E30C07FE030700B01377F70F8B
S11302901306F6FFB306D700E31006FE6FF09FF6D1
S11302A01386070013074000935F8601830540B05F
S11302B093F52500E39C05FE2300F0B11307F7FF37
S11302C013168600E31207FE6FF0DFF31396170090
S11302D093D7F701B3E7C700030640B013761600BF
S11302E0E30C06FE030600B0B305D7002380C50067
S11302F01376F60FB307F60013071700E318A7FCED
S11303006FF05FF093070000130700006FF01FFF0A
S9030000FC
